:100000000C94D2000C94EF000C94EF000C94EF00D1
:100010000C94EF000C94EF000C94EF000C94EF00A4
:100020000C94EF000C94EF000C9420040C94EF005F
:100030000C94EF000C941B020C94EF000C94EF0056
:100040000C94EF000C94EF000C94EF000C94EF0074
:100050000C94EF006E616E00696E66006364696EF9
:100060006F70737578585B65666745464700616ECB
:10007000006E66696E69747900CDCCCC3D0AD723D9
:100080003C17B7D13877CC2B329595E6241FB14F6A
:100090000A000020410000C84200401C4620BCBEAF
:1000A0004CCA1B0E5AAEC59D7400407A10F35A001C
:1000B000A0724E18090010A5D4E80000E876481791
:1000C0000000E40B54020000CA9A3B000000E1F576
:1000D00005000080969800000040420F000000A03C
:1000E0008601000000102700000000E80300000067
:1000F000006400000000000A000000000001000091
:100100000000002C76D888DC674F0823DFC1DFAE03
:1001100059E1B1B796E5E3E453C63AE651997696CC
:10012000E8E6C28426EB898C9B62ED407C6FFCEF95
:10013000BC9C9F40F2BAA56FA5F490055A2AF75CC3
:10014000936B6CF9676DC11BFCE0E40D47FEF52075
:10015000E6B500D0ED902E0300943577050080843D
:100160001E080000204E0A000000C80C3333333351
:100170000F986E12831141EF8D2114893BE65516BD
:10018000CFFEE6DB18D1844B381BF77C1D901DA4F5
:10019000BBE424203284725E228100C9F124ECA1E8
:1001A000E53D270011241FBECFE5D8E0DEBFCDBF5F
:1001B00010E0A0E6B0E0EAE6F1E202C005900D92A0
:1001C000A439B107D9F711E0A4E9B0E001C01D924C
:1001D000A03DB107E1F70E9450050C94B3100C94B8
:1001E000000087B317BA88B38FEF88BB089586B332
:1001F00021E030E0822781708093DB0086B390E0BD
:10020000969587958227932781708093CF0086B338
:1002100090E096958795969587958227932781708C
:100220008093D20086B390E073E0969587957A9597
:10023000E1F78227932781708093EF0086B390E0E7
:1002400064E0969587956A95E1F7822793278170F8
:1002500080937F0186B390E055E0969587955A95F7
:10026000E1F78227932781708093790186B390E02C
:1002700046E0969587954A95E1F782279327817006
:100280008093D10086B31092C70187FD03C081E03F
:100290008093C70186B390E008958091DB0080933E
:1002A000C9018091CF008093D5008091D2008093C6
:1002B000CE018091EF008093FA0080917F018093BE
:1002C000D600809179018093FB008091D1008093CA
:1002D000F9008091C70180937B0108958AB38F63F1
:1002E0008ABB8BB38F638BBB08958091F200811121
:1002F00081E0982F8091CD01811192608091500111
:10030000811194608091CA01811198608091C4012B
:10031000811190618091FC00811190628BB3909566
:100320009F73807C892B8BBB089580FF02C0929ABB
:1003300001C0929881FF02C0939A01C0939882FFF6
:1003400002C0949A01C0949883FF02C0959A0895C0
:10035000959808951F93182F979A82958F700E94F1
:1003600095019798979A812F0E949501979880ED13
:1003700097E00197F1F71F91089596980E94AA01BE
:100380000895969A0E94AA010895CF93DF93EC01F5
:1003900003C00E94C101219688818823D1F7DF9193
:1003A000CF9108951F93CF93DF938A9A8B9A8C9A5B
:1003B0008D9A8F9A8E9A80E395E70197F1F7979837
:1003C000969810E0C0E1D7E2979A83E00E949501E9
:1003D0009798CE010197F1F71F5F1330A9F7979A0D
:1003E00082E00E949501979880ED97E00197F1F7E0
:1003F00088E20E94BD0188E00E94BD0181E00E9468
:10040000BD0186E00E94BD018CE00E94BD01DF912C
:10041000CF911F91089580686295660F660F607C8A
:10042000862B0E94BD01089581E00E94BD0182E0FB
:100430000E94BD0108951F920F920FB60F921124D2
:100440008F939F93EF93FF938091CD00E82FF0E07F
:100450009CB1EF5AFE4F90838F5F8093CD009091B7
:10046000CD0080919200981728F01092CD0081E085
:100470008093CE005F98FF91EF919F918F910F90A5
:100480000FBE0F901F901895F89420EC32E140E0D9
:1004900050E00E94150E223069F0233018F421300C
:1004A000A1F405C0243059F02C3079F40BC010BCF5
:1004B00087E602C010BC83E389B990E00AC010BC93
:1004C00089E1FACF10BC88E0F7CF10BC89E189B987
:1004D00091E086E880BD88E98AB97894892F0895EB
:1004E00040E055E503C0808158274F5F242F30E05E
:1004F0008091920090E00197F901EF5AFE4F281782
:1005000039078CF3808190E0581709F491E0892F26
:100510000895EF92FF920F931F937B018C01E42FBC
:10052000F0E0E131F10510F082E082C0213110F0FD
:1005300083E07EC0CF010296880F991F8932910512
:1005400010F084E075C0F894A0E0B0E0FD01EF5A2F
:10055000FE4F10821196A832B105C1F71092960095
:1005600010929700EDEFF0E01192119231E0ED3131
:10057000F307D1F78093920020939900409398005D
:10058000C801B7010E944402882311F081E050C0E5
:100590001092CD001092CE00789430919400832F69
:1005A000817080934D01832F90E096958795282F39
:1005B00021702093ED0096958795282F2170209328
:1005C0007D0196958795282F21702093F6009695AA
:1005D0008795282F21702093D00096958795282FF6
:1005E00021702093C1019695879581708093D700E3
:1005F0001092C60137FF03C081E08093C60180914D
:100600009500282F217020934F0190E096958795B3
:10061000282F21702093F00096958795282F217020
:100620002093D3009695879581708093EE0080E0AB
:100630001F910F91FF90EF90089508C08091F100F5
:10064000882341F01092CD001092CE008091CD0011
:100650008823A1F78091CE00882309F473C00E94FB
:100660007002882309F46BC060915201609394007A
:1006700070915301709395008091980020E030E0D4
:10068000482F50E04F5F5F4F440F551F0CC0F901DA
:10069000E55EFE4FD901AF5ABE4F11968D919C91E8
:1006A0001297918380832E5F3F4F2417350779F788
:1006B000862F817080934D01862F90E096958795C7
:1006C000282F21702093ED0096958795282F217073
:1006D00020937D0196958795282F21702093F60011
:1006E00096958795282F21702093D0009695879511
:1006F000282F21702093C101969587958170809352
:10070000D7001092C60167FF03C081E08093C60145
:10071000872F817080934F01872F90E09695879562
:10072000282F21702093F00096958795282F21700F
:100730002093D3009695879581708093EE00109258
:10074000CE0081E00895109296008091C501882323
:1007500019F081E0809396008091EC00882329F0C5
:10076000809196008260809396008091CC018823CE
:1007700029F08091960084608093960080917C019E
:10078000882329F08091960088608093960080915C
:10079000D900882329F0809196008061809396008B
:1007A00080914E01882329F0809196008062809389
:1007B00096008091F300882329F080919600806450
:1007C000809396008091CF01882329F08091960034
:1007D0008068809396005D9BFECF309199003CB974
:1007E0005D9BFECF809196008CB95D9BFECF909172
:1007F00097009CB9232F282785E52827292790E0F3
:1008000019C0E091CC00F0E0EE0FFF1FE350FF4F66
:1008100081815D9BFECF8CB9E091CC00F0E0EE0FC2
:10082000FF1FE350FF4FE0815D9BFECFECB98E27A9
:1008300028279F5F931728F35D9BFECF2CB908955F
:100840001F920F920FB60F9211248F939F93809156
:10085000F100882329F08091F10081508093F1000C
:100860008091CA009091CB0001969093CB00809329
:10087000CA009F918F910F900FBE0F901F901895F7
:100880001092CA01109250011092CD011092F20004
:1008900008958091CA009091CB0001969093CB006F
:1008A0008093CA0008950895FF920F931F93F090CC
:1008B000DB00F092F2004091CF004093CD013091E7
:1008C000D200309350012091EF002093CA01FF2005
:1008D00021F081E08093C50102C01092C50144233C
:1008E00021F081E08093EC0002C01092EC003323F1
:1008F00021F081E08093CC0102C01092CC01222330
:1009000031F081E08093F30080934E0104C0109297
:10091000F30010924E018091CA009091CB00805E4E
:100920009E4224F01092CB001092CA0080913D01AB
:1009300090913E018C599F4F90933E0180933D01D1
:1009400080913F019091400188539F4F90934001C7
:1009500080933F018091410190914201845D9E4FBF
:100960009093420180934101809143019091440111
:1009700080579E4F9093440180934301809145019D
:10098000909146018C509E4F909346018093450173
:100990008091470190914801885A9D4F909348015A
:1009A000809347018091490190914A0184549D4F61
:1009B00090934A01809349018091CA009091CB00A5
:1009C00064E670E00E94020E70934C0160934B014C
:1009D0008DB79EB70C970FB6F8949EBF0FBE8DBF14
:1009E000EDB7FEB7319601E811E0ADB7BEB712968C
:1009F0001C930E93119780E690E093838283F48298
:100A000015824683178230871186228713860E94BB
:100A100014108DB79EB70C960FB6F8949EBF0FBEFC
:100A20008DBF81E061E00E940B02C8010E94C501F8
:100A3000ADB7BEB71C970FB6F894BEBF0FBEADBF23
:100A4000EDB7FEB7319612961C930E93119789E776
:100A500090E0938382838091F20084831582809159
:100A6000CD01868317828091500180871186809105
:100A7000CA01828713860E9414108DB79EB70C9608
:100A80000FB6F8949EBF0FBE8DBF81E062E00E945A
:100A90000B02C8010E94C5011F910F91FF9008959C
:100AA0001F938FEF8ABB17BA8BBB88BB8CE083BFC9
:100AB0008CE78CBF82E089BF78940E94D20160E00D
:100AC0007BE480E090E040E020E00E948902109208
:100AD000CA01109250011092CD011092F20019E15A
:100AE0001093F1000E9454048091F1008823E1F7F3
:100AF000F7CFA1E1B0E0EFE7F5E00C94300E3C0158
:100B00007F876E876A01FC0117821682838181FDCF
:100B100003C06FEF7FEF6FC39E012F5F3F4F398B95
:100B2000288BF3012381EE85FF8523FD859123FF2B
:100B30008191FF87EE87882309F45AC3853251F4E7
:100B4000EE85FF8523FD859123FF8191FF87EE8749
:100B5000853229F490E0B3010E94E80FE2CF982F8C
:100B600010E0882499241032B0F49B3269F09C3252
:100B700028F4903251F0933271F40BC09D3239F069
:100B8000903349F4116028C01260146025C01860C9
:100B900023C0106121C017FD2AC0892F80538A30DD
:100BA00078F416FF06C0FAE09F9E902C1124980E50
:100BB00013C03AE0839E802C1124880E10620CC072
:100BC0009E3221F416FD14C3106406C09C3611F445
:100BD000106802C0983659F4EE85FF8523FD959183
:100BE00023FF9191FF87EE87992309F0BCCF892FCE
:100BF0008554833020F4812F8061905E07C0892F57
:100C00008556833008F09FC1812F8F7E86FD02C0FC
:100C100076E0972E6FE3F62EF822953619F4F0E47D
:100C2000FF2A07C0963619F420E8F22A02C0911074
:100C30009A94F7FE0AC03BE3391518F45CE3B52E2D
:100C400002C0B92CB39427E009C047E0491520F44D
:100C5000BB2447E0942EF7CF292DBB24C601049670
:100C60009D878C87F6016081718182819381AE01BD
:100C70004F5F5F4F0B2D0E949D0E6C010981202E4E
:100C8000332400FF04C003FD02C01DE209C0F1FED1
:100C900002C01BE205C0F2FC02C010E001C010E27D
:100CA000C1018C709070892BB9F1112311F483E08C
:100CB00001C084E0881510F088240AC0881AF3FC6B
:100CC00007C080E290E0B3010E94E80F8A94C9F760
:100CD000112329F0812F90E0B3010E94E80F23FE39
:100CE00003C004E510E00EC008E510E00BC0E114FD
:100CF000F10409F0805290E0B3010E94E80F0F5F09
:100D00001F4F05C0EF2CFF24F0E1EF22FF24F80174
:100D10008491882361F714C1F7FE12C0BC0C24FE35
:100D200004C08A81813309F4BA941B141CF0BB24DB
:100D3000B3942DC0F8E0FB1550F538E0B32E27C072
:100D4000F6FC25C0892D90E08C159D054CF02CEF0C
:100D5000C2162FEFD20624F030E8F32A01C09A948D
:100D6000992049F0E2E0F0E0EC0FFD1FE90DF11DE4
:100D700080818033A1F3F7FE0AC0B92CB394892D8A
:100D800090E0C816D90614F0992401C09C18F7FC0D
:100D900003C025E030E009C01C141D041CF021E054
:100DA00030E003C096012F5F3F4F112311F02F5FFA
:100DB0003F4F992029F0892D90E00196280F391F87
:100DC000882D90E02817390714F0882401C0821A72
:100DD0004F2C5524C20189709070892B39F008C0BE
:100DE00080E290E0B3010E94E80F8A948820C1F766
:100DF000112329F0812F90E0B3010E94E80F43FEF8
:100E000007C008C080E390E0B3010E94E80F8A9415
:100E10008820C1F7F7FE46C08601D7FE02C000E079
:100E200010E076010894E11CF11CE01AF10A41E09F
:100E300050E04C0F5D1FE40EF51E26014B185108C3
:100E4000892D90E0AA24BB24A81AB90A5FEF0F3FAE
:100E5000150729F48EE290E0B3010E94E80FC01656
:100E6000D10634F0401651061CF4F701808101C010
:100E700080E3015010400894E11CF11C0A151B0589
:100E80002CF090E0B3010E94E80FE0CF0C151D0597
:100E900039F49A81963318F4953311F424FE81E3E2
:100EA00090E04BC08A81813309F00F7E90E0B3015E
:100EB0000E94E80F9920A1F08EE290E0B3010E9419
:100EC000E80F12E0E1E0F0E0EC0FFD1FE10FF11D93
:100ED0001F5F808190E0B3010E94E80F9A9491F720
:100EE00044FC03C085E690E002C085E490E0B301D5
:100EF0000E94E80FD7FC05C0C114D10441F404FFDF
:100F000006C0D094C194D108D3948DE201C08BE285
:100F100090E0B3010E94E80F80E305C08F5F26EFE9
:100F20003FEFC20ED31E3AE0C316D104BCF790E0E7
:100F3000B3010E94E80FC601C096B3010E94E80FFA
:100F4000CC84DD8452C1933631F0933799F09335D8
:100F500009F059C023C0F601808189835E0108949D
:100F6000A11CB11C22E030E0C20ED31E21E0E22E13
:100F7000F12C12C0F601A080B18016FD03C06FEF06
:100F80007FEF02C0692D70E022E030E0C20ED31E78
:100F9000C5010E949B0F7C011F7713C0F601A08042
:100FA000B18016FD03C06FEF7FEF02C0692D70E0C6
:100FB00022E030E0C20ED31EC5010E94900F7C01DA
:100FC000106813FF07C01BC080E290E0B3010E94CD
:100FD000E80F8A94882D90E0E816F906A8F30FC070
:100FE000F50117FD859117FF81915F0190E0B30135
:100FF0000E94E80F81108A940894E108F108E11436
:10100000F10471F7F2C0943611F0993689F517FFA3
:1010100008C0F601208131814281538184E090E053
:101020000AC0F601808191819C01442737FD4095DB
:10103000542F82E090E0C80ED91E9FE6F92EF122CF
:1010400057FF09C050954095309521953F4F4F4F20
:101050005F4F90E8F92ACA01B901AE014F5F5F4FB7
:101060002AE030E00E945210E82EE889EE1A41C0D2
:10107000953721F41F7E2AE030E01CC0197F9F368F
:1010800061F0903720F4983509F0B2C00FC0903766
:1010900039F0983709F0ACC004C028E030E00AC04D
:1010A000106114FD146020E130E004C014FD1660EE
:1010B00020E132E017FF08C0F60160817181828172
:1010C000938144E050E008C0F60180819181BC0129
:1010D00080E090E042E050E0C40ED51EAE014F5FCC
:1010E0005F4F0E945210E82E5889E51A8FE7F82EBC
:1010F000F122F6FE0BC08EEFF822E91438F4F4FE6C
:1011000007C0F2FC05C09FEEF92202C01E2D01C0EF
:10111000192DF4FE0DC0FE01EE0DF11D808180330E
:1011200019F4E9EEFE2208C01F5FF2FE05C003C0FD
:101130008F2D867809F01F5F0F2DF3FC14C0F0FE91
:101140000FC0181510F09E2C0BC09E2C980C911AF5
:10115000182D06C080E290E0B3010E94E80F1F5FE7
:101160001815C0F304C0181510F4811A01C08824A2
:1011700004FF0FC080E390E0B3010E94E80F02FF7C
:101180001DC001FD03C088E790E00EC088E590E037
:101190000BC0802F867891F001FF02C08BE201C066
:1011A00080E2F7FC8DE290E0B3010E94E80F06C0F8
:1011B00080E390E0B3010E94E80F9A94E914C0F331
:1011C000EA94E1E0F0E0EC0FFD1FEE0DF11D8081EF
:1011D00090E0B3010E94E80FEE2091F706C080E294
:1011E00090E0B3010E94E80F8A948820C1F799CC5F
:1011F000F30166817781CB016196E2E10C944C0E9C
:10120000FC0120FD08C023FD05C022FF02C073833E
:101210006283518340830895EF92FF920F931F934F
:1012200044FF02C033E011C046FF02C034E00DC0ED
:10123000DB01FC01AA0FBB1FEE1FFF1F1094D1F7AB
:101240006A0F7B1F8E1F9F1F31E0660F771F881F5D
:10125000991F3150D1F77B018C01E20EF11C011D69
:10126000111DA8019701B701CA011F910F91FF90AD
:10127000EF9008950F931F93CF93DF938C01C801D4
:101280000E94A60FEC0197FD08C00E94750F892BE4
:10129000B1F7CE01B8010E943810CE01DF91CF9195
:1012A0001F910F9108958F929F92AF92BF92DF92FC
:1012B000EF92FF920F931F93CF93DF935C01EB01AB
:1012C0004A01122F0E94A60FAC018B3219F08D3209
:1012D00051F41068219709F46DC0C5010E94A60F52
:1012E000AC0197FD67C06DEFD62ED1228D2D807396
:1012F00001F54033F1F4219709F447C0C5010E947C
:10130000A60FAC0197FD41C082E0D82A483711F002
:10131000483559F480E4D82A2197B9F1C5010E94D3
:10132000A60FAC0199232CF430C0D6FC02C080E19A
:10133000D82AEE24FF248701242F2053283088F058
:10134000D4FC09C02A3068F0D6FE05C02F7D822F5C
:101350008151863028F0CA01B5010E94381012C0B0
:101360002750C801B7014D2D0E940C097B018C014B
:1013700082E0D82A219761F0C5010E94A60FAC0136
:1013800097FFDACFD1FC04C015C0EE24FF248701FB
:10139000D7FE08C010950095F094E094E11CF11C74
:1013A000011D111DC401B801A7012D2D0E940009C6
:1013B00081E001C080E0DF91CF911F910F91FF90FC
:1013C000EF90DF90BF90AF909F908F900895A0E234
:1013D000B0E0EDEEF9E00C94340E5C016B018A0193
:1013E0007901FE01319680E2DF011D928A95E9F7CD
:1013F00070E030E060E040E050E03F01A1E0B0E0AC
:10140000F5018381F70183FD259183FF21917F0100
:10141000222309F481C02E3519F44115510569F1D3
:10142000872F90E08417950744F42D3551F12D3224
:1014300021F4332329F431E021C0332309F4622F4E
:10144000322F832F869586958695F301E80FF11D3F
:10145000832F87704D0102C0880C991C8A95E2F792
:10146000208128292083361711F430E007C0361771
:1014700010F43F5FE6CF3150E4CF71E04F5F5F4F34
:10148000BFCF332319F08E8180628E83772359F08A
:10149000FE0131969E012F5D3F4F808180958193A3
:1014A000E217F307D1F7992493943E010894611C45
:1014B000711CC5010E94A60FAC0197FD25C0869541
:1014C00086958695F301E80FF11D808190E09A01E1
:1014D0002770307002C0959587952A95E2F780FDB8
:1014E00005C0CA01B5010E9438100EC001151105D2
:1014F00019F0D8014D938D010894C108D1089924A1
:10150000C114D104B1F602C0992031F401151105BE
:1015100029F0F801108202C0EE24FF24C701A09632
:10152000EEE00C94500E2F923F925F926F927F925A
:101530008F929F92AF92BF92CF92DF92EF92FF92E3
:101540000F931F93CF93DF933C017B011A010E94FD
:10155000A60FEC018B3239F08D3211F0552411C0F9
:10156000B0E85B2E01C055240894E108F108E114AD
:10157000F10409F418C1C3010E94A60FEC0197FD04
:1015800012C1CE010E947D0F8936910521F08E3661
:10159000910599F51DC001E710E01CC00894E10811
:1015A000F108E114F10471F0C3010E94A60FEC01EF
:1015B00097FD08C00E947D0FD81661F0CE01B301DF
:1015C0000E94381020E00437120709F0ECC008C070
:1015D0000EE610E0F8010F5F1F4FD490DD20F1F60A
:1015E0000157104029F080E090E0A0E8BFE7CFC0AD
:1015F00080E090E0A0ECBFE7CAC0CC24DD248824C2
:1016000099245401AE014053242F4A3038F552E05A
:10161000552A852D90E0AC014870507052FE06C0EE
:10162000452B11F50894C11CD11C1EC0452B19F087
:101630000894C108D108C501B40140E20E940C0918
:101640004B015C0188E9881689E9980689E9A806B2
:1016500089E1B80648F094E0592A06C04E3F81F46B
:1016600053FC0EC0E8E05E2A0894E108F108E1149A
:10167000F10431F0C3010E94A60FEC0197FFC2CF25
:1016800051FE91C0C53619F0C53409F046C0089422
:10169000E108F108E114F10409F485C0C3010E94D6
:1016A000A60FEC0197FD7FC08B3221F08D3269F4DB
:1016B000F0E15F2A0894E108F108E114F10409F46B
:1016C00072C0C3010E94A60FEC01CE01C0970A9719
:1016D00008F069C000E010E0B801882777FD809528
:1016E000982FAE014053242F40E20E940C098B0139
:1016F0000894E108F108E114F10439F0C3010E94F3
:10170000A60FEC01C0970A9738F3B80154FE03C046
:10171000709561957F4FC60ED71EEF2831F0D7FD2B
:1017200004C0CE01B3010E943810C501B4010E946B
:10173000110DD7FE0DC0ADE8EA2EA0E0FA2ED09430
:10174000C194D108D394C0E2D0E000E010E00EC014
:10175000F5EAEF2EF0E0FF2EF6CFF7012591359157
:10176000459154910E944E0DCC1ADD0ACC16DD062F
:10177000A0F7D695C7950F5F1F4F0630110529F0CA
:10178000ECEFFFEFEE0EFF1EF1CFDC01CB0157FCBB
:10179000B0582114310429F0F10180839183A28390
:1017A000B38381E001C080E0DF91CF911F910F9161
:1017B000FF90EF90DF90CF90BF90AF909F908F9071
:1017C0007F906F905F903F902F900895A0E0B0E0E1
:1017D000ECEEFBE00C94330E4C015B013A01FC0192
:1017E00017821682552404C1812F90E00E94750F44
:1017F000892B21F0C4010E943A09FAC0153249F43C
:10180000F501F3FC6591F3FE61915F01653269F4C6
:1018100015E2C4010E94A60F97FDF6C0181709F43F
:10182000E7C0B4010E943810F4C06A3219F0162FD4
:1018300000E006C0F3FC1591F3FE11915F0101E099
:10184000CC24DD240EC00260B60180E090E040E2CE
:101850000E940C096B01F501F3FC1591F3FE119147
:101860005F01212F20532A3070F301FD04C0CC24E6
:10187000CA94DC2C04C0C114D10409F4CAC01836BF
:1018800021F01C3699F4F5010BC0F501F3FC6591CC
:10189000F3FE6191683619F05F01162F07C00860EA
:1018A0000460F3FC1591F3FE11915F01112309F41B
:1018B000B0C08CE590E0612F70E00E94850F892B0D
:1018C00009F4A7C0802F00FF03C0EE24FF2407C047
:1018D000F301E080F18022E030E0620E731E1E36DC
:1018E00051F4F4014681578160E070E0C701202F78
:1018F0000E9400097DC01336B9F481FD03C081E068
:10190000C82ED12CC4010E94A60F97FD7DC0E11402
:10191000F10419F0F70181937F010894C108D108FF
:10192000C114D10479F762C01B3559F4C401B60162
:10193000A70195010E94E7095C01009709F056C0D4
:1019400050C0C4010E943A0997FD5EC01F36D1F114
:10195000103738F41436A1F11936A9F11835D1F53C
:101960002DC0133751F0143718F4103799F526C0ED
:10197000153731F1183771F521C0C4010E94A60F47
:10198000EC0197FD15C00E94750F892B29F0CE013F
:10199000B4010E9438100CC0E114F10419F0F701F1
:1019A000C1937F010894C108D108C114D10429F75B
:1019B000E114F104D9F0F701108218C0006403C0EB
:1019C000006201C00061C401B601A701202F0E947E
:1019D000530905C0C401B601A7010E94930A8823D8
:1019E00029F4F4018381807379F413C000FF5394C8
:1019F000F401F380F501F3FC1591F3FE11915F0101
:101A0000112309F0F1CE05C0552019F42FEF3FEF57
:101A100002C0252D30E0C901CDB7DEB7EFE00C9450
:101A20004F0EE89409C097FB3EF490958095709511
:101A300061957F4F8F4F9F4F9923A9F0F92F96E91A
:101A4000BB279395F695879577956795B795F1118F
:101A5000F8CFFAF4BB0F11F460FF1BC06F5F7F4F2C
:101A60008F4F9F4F16C0882311F096E911C077233E
:101A700021F09EE8872F762F05C0662371F096E847
:101A8000862F70E060E02AF09A95660F771F881F16
:101A9000DAF7880F9695879597F908950BD078C057
:101AA00069D028F06ED018F0952309F05AC05FC0B5
:101AB0001124A2C07ED0A0F3959FD1F3950F50E0E2
:101AC000551F629FF001729FBB27F00DB11D639FF0
:101AD000AA27F00DB11DAA1F649F6627B00DA11D96
:101AE000661F829F2227B00DA11D621F739FB00D3C
:101AF000A11D621F839FA00D611D221F749F3327AC
:101B0000A00D611D231F849F600D211D822F762F44
:101B10006A2F11249F5750408AF0E1F088234AF041
:101B2000EE0FFF1FBB1F661F771F881F915050408D
:101B3000A9F79E3F510570F014C05EC05F3FECF303
:101B4000983EDCF3869577956795B795F795E79579
:101B50009F5FC1F7FE2B880F911D9695879597F98A
:101B6000089597F99F6780E870E060E008959FEF1F
:101B700080EC089500240A94161617061806090624
:101B8000089500240A9412161306140605060895F3
:101B9000092E0394000C11F4882352F0BB0F40F47B
:101BA000BF2B11F460FF04C06F5F7F4F8F4F9F4FBB
:101BB000089557FD9058440F551F59F05F3F71F03D
:101BC0004795880F97FB991F61F09F3F79F08795A4
:101BD0000895121613061406551FF2CF4695F1DF2D
:101BE00008C0161617061806991FF1CF86957105BD
:101BF000610508940895E894BB2766277727CB01F1
:101C000097F9089597FB092E07260AD077FD04D08F
:101C10005ED006D000201AF4709561957F4F08952C
:101C2000F6F7909581959F4F089597FB092E05260D
:101C30000ED057FD04D05FD00AD0001C38F4509568
:101C40004095309521953F4F4F4F5F4F0895F6F7E0
:101C500090958095709561957F4F8F4F9F4F089518
:101C60002F923F924F925F926F927F928F929F92AC
:101C7000AF92BF92CF92DF92EF92FF920F931F939A
:101C8000CF93DF93CDB7DEB7CA1BDB0B0FB6F8944B
:101C9000DEBF0FBECDBF09942A88398848885F848B
:101CA0006E847D848C849B84AA84B984C884DF80FC
:101CB000EE80FD800C811B81AA81B981CE0FD11DE0
:101CC0000FB6F894DEBF0FBECDBFED010895AA1B7D
:101CD000BB1B51E107C0AA1FBB1FA617B70710F017
:101CE000A61BB70B881F991F5A95A9F78095909549
:101CF000BC01CD010895A1E21A2EAA1BBB1BFD0158
:101D00000DC0AA1FBB1FEE1FFF1FA217B307E407DA
:101D1000F50720F0A21BB30BE40BF50B661F771F32
:101D2000881F991F1A9469F7609570958095909512
:101D30009B01AC01BD01CF010895283008F027E0D8
:101D40003327DA01990F311D87FD916000966105F7
:101D5000710539F432602E5F3D9330E32A95E1F747
:101D600008959F3F30F080387105610509F03C5FB0
:101D70003C5F3D93913008F08068911DDF93CF93D5
:101D80001F930F93FF92EF92192F987F9695E92F4B
:101D900096959695E90FFF27ED5FFE4F992733271C
:101DA000EE24FF24A701E70105900894079428F486
:101DB000360FE71EF81E491F511D660F771F881F3B
:101DC000991F0694A1F70590079428F4E70EF81ED2
:101DD000491F561FC11D770F881F991F661F069444
:101DE000A1F70590079428F4F80E491F561FC71F46
:101DF000D11D880F991F661F771F0694A1F70590C4
:101E0000079420F4490F561FC71FD81F990F661F4C
:101E1000771F881F0694A9F784911095177041F0D9
:101E2000D695C79557954795F794E7941A95C1F7B6
:101E3000E9EAF0E0689415901591359165919591D6
:101E400005907FE27395E118F10A430B560BC90B1D
:101E5000D009C0F7E10CF11E431F561FC91FD01D4A
:101E60007EF4703311F48A95E6CFE894015030F097
:101E7000080F0AF40027021708F4202F2395022FD9
:101E80007A3328F079E37D932A95E9F710C07D93A2
:101E90002A9589F60694979567953795179517941F
:101EA000E118F10A430B560BC90BD00998F02395A2
:101EB0007E9173957A3308F070E37C932013B8F722
:101EC0007E9170617D9330F0839571E37D9370E333
:101ED0002A95E1F71124EF90FF900F911F91CF9178
:101EE000DF91992787FD90950895911139C180322E
:101EF00019F089508550D0F70895911108958154B3
:101F00008A5108F4805E855A0895FC0105900616F2
:101F100021F00020D9F7C00108953197CF0108952D
:101F2000FC010590615070400110D8F780959095A4
:101F30008E0F9F1F0895FC016150704001900110A9
:101F4000D8F7809590958E0F9F1F0895CF93DF93BC
:101F5000EC014B8140FF1AC046FF0AC04F7B4B8308
:101F60008E819F8101969F838E838A81282F2BC02B
:101F700042FF13C0E881F9818081282F332727FD94
:101F800030952115310529F440624B832FEF3FEF47
:101F90001BC03196F983E88311C0EA85FB85CE0129
:101FA00009959C0197FF0AC09B812F5F3F4F11F05D
:101FB00080E201C080E1892B8B83E8CF8E819F81F5
:101FC00001969F838E8330E0C901DF91CF91089500
:101FD0000F931F93CF93DF938C01EB018B8181FFD4
:101FE0001BC082FF0DC02E813F818C819D812817EF
:101FF000390764F4E881F9810193F983E88306C025
:10200000E885F985802F0995892B31F48E819F8190
:1020100001969F838E8302C00FEF1FEFC801DF91EF
:10202000CF911F910F910895AEE0B0E0EAE1F0E1A9
:102030000C943E0E0D891E8986E08C831A830983D9
:102040008FEF9FE79E838D839E01275E3F4FCE01DA
:1020500001966F89788DA9010E9479052F813885B5
:10206000020F131FF80110822E96E4E00C945A0E12
:102070009C01FB01838180FF11C086FD0FC09FEF93
:102080002F3F390759F0228380648F7D83838681B7
:10209000978101979783868330E002C02FEF3FEF4F
:1020A000C9010895FA01AA27283051F1203181F1A0
:1020B000E8946F936E7F6E5F7F4F8F4F9F4FAF4F50
:1020C000B1E03ED0B4E03CD0670F781F891F9A1F63
:1020D000A11D680F791F8A1F911DA11D6A0F711D17
:1020E000811D911DA11D20D009F468943F912AE023
:1020F000269F11243019305D3193DEF6CF0108950B
:10210000462F4770405D4193B3E00FD0C9F7F6CF3B
:10211000462F4F70405D4A3318F0495D31FD405203
:10212000419302D0A9F7EACFB4E0A6959795879599
:1021300077956795BA95C9F7009761057105089578
:102140009B01AC010A2E0694579547953795279524
:10215000BA95C9F7620F731F841F951FA01D0895BC
:0A216000992788270895F894FFCF0F
:10216A004B313D25644B323D25644B333D25644B51
:10217A00343D256420202020004C313D25644C321A
:10218A003D25644C333D25644C343D256420202094
:04219A00200004001D
:00000001FF
